{
  "contractName": "Tender",
  "abi": [
    {
      "inputs": [
        {
          "internalType": "address payable",
          "name": "_owner",
          "type": "address"
        },
        {
          "internalType": "string",
          "name": "_tenderproposal",
          "type": "string"
        },
        {
          "internalType": "uint256",
          "name": "_startPrice",
          "type": "uint256"
        },
        {
          "internalType": "string",
          "name": "_description",
          "type": "string"
        }
      ],
      "stateMutability": "nonpayable",
      "type": "constructor"
    },
    {
      "inputs": [
        {
          "internalType": "address",
          "name": "",
          "type": "address"
        }
      ],
      "name": "bids",
      "outputs": [
        {
          "internalType": "uint256",
          "name": "",
          "type": "uint256"
        }
      ],
      "stateMutability": "view",
      "type": "function"
    },
    {
      "inputs": [],
      "name": "highestBidder",
      "outputs": [
        {
          "internalType": "address payable",
          "name": "",
          "type": "address"
        }
      ],
      "stateMutability": "view",
      "type": "function"
    },
    {
      "inputs": [],
      "name": "highestPrice",
      "outputs": [
        {
          "internalType": "uint256",
          "name": "",
          "type": "uint256"
        }
      ],
      "stateMutability": "view",
      "type": "function"
    },
    {
      "inputs": [],
      "name": "tenderingsessionState",
      "outputs": [
        {
          "internalType": "enum Tender.State",
          "name": "",
          "type": "uint8"
        }
      ],
      "stateMutability": "view",
      "type": "function"
    },
    {
      "inputs": [],
      "name": "placeBid",
      "outputs": [
        {
          "internalType": "bool",
          "name": "",
          "type": "bool"
        }
      ],
      "stateMutability": "payable",
      "type": "function"
    },
    {
      "inputs": [],
      "name": "finalizeTenderingSession",
      "outputs": [],
      "stateMutability": "nonpayable",
      "type": "function"
    },
    {
      "inputs": [],
      "name": "returnContents",
      "outputs": [
        {
          "internalType": "string",
          "name": "",
          "type": "string"
        },
        {
          "internalType": "uint256",
          "name": "",
          "type": "uint256"
        },
        {
          "internalType": "string",
          "name": "",
          "type": "string"
        },
        {
          "internalType": "enum Tender.State",
          "name": "",
          "type": "uint8"
        }
      ],
      "stateMutability": "view",
      "type": "function"
    }
  ],
  "bytecode": "0x60806040523480156200001157600080fd5b5060405162000c1938038062000c19833981810160405260808110156200003757600080fd5b8101908080519060200190929190805160405193929190846401000000008211156200006257600080fd5b838201915060208201858111156200007957600080fd5b82518660018202830111640100000000821117156200009757600080fd5b8083526020830192505050908051906020019080838360005b83811015620000cd578082015181840152602081019050620000b0565b50505050905090810190601f168015620000fb5780820380516001836020036101000a031916815260200191505b5060405260200180519060200190929190805160405193929190846401000000008211156200012957600080fd5b838201915060208201858111156200014057600080fd5b82518660018202830111640100000000821117156200015e57600080fd5b8083526020830192505050908051906020019080838360005b838110156200019457808201518184015260208101905062000177565b50505050905090810190601f168015620001c25780820380516001836020036101000a031916815260200191505b50604052505050836000806101000a81548173ffffffffffffffffffffffffffffffffffffffff021916908373ffffffffffffffffffffffffffffffffffffffff16021790555082600190805190602001906200022192919062000271565b508160028190555080600390805190602001906200024192919062000271565b506001600460006101000a81548160ff021916908360028111156200026257fe5b02179055505050505062000327565b828054600181600116156101000203166002900490600052602060002090601f016020900481019282620002a95760008555620002f5565b82601f10620002c457805160ff1916838001178555620002f5565b82800160010185558215620002f5579182015b82811115620002f4578251825591602001919060010190620002d7565b5b50905062000304919062000308565b5090565b5b808211156200032357600081600090555060010162000309565b5090565b6108e280620003376000396000f3fe6080604052600436106100705760003560e01c806391f901571161004e57806391f901571461013b578063c8287b581461017c578063dcc196ca14610291578063ecfc7ecc146102a857610070565b80630e8670e01461007557806331bf7a69146100a057806362ea82db146100d6575b600080fd5b34801561008157600080fd5b5061008a6102c8565b6040518082815260200191505060405180910390f35b3480156100ac57600080fd5b506100b56102ce565b604051808260028111156100c557fe5b815260200191505060405180910390f35b3480156100e257600080fd5b50610125600480360360208110156100f957600080fd5b81019080803573ffffffffffffffffffffffffffffffffffffffff1690602001909291905050506102e1565b6040518082815260200191505060405180910390f35b34801561014757600080fd5b506101506102f9565b604051808273ffffffffffffffffffffffffffffffffffffffff16815260200191505060405180910390f35b34801561018857600080fd5b5061019161031f565b6040518080602001858152602001806020018460028111156101af57fe5b8152602001838103835287818151815260200191508051906020019080838360005b838110156101ec5780820151818401526020810190506101d1565b50505050905090810190601f1680156102195780820380516001836020036101000a031916815260200191505b50838103825285818151815260200191508051906020019080838360005b83811015610252578082015181840152602081019050610237565b50505050905090810190601f16801561027f5780820380516001836020036101000a031916815260200191505b50965050505050505060405180910390f35b34801561029d57600080fd5b506102a6610484565b005b6102b0610729565b60405180821515815260200191505060405180910390f35b60055481565b600460009054906101000a900460ff1681565b60076020528060005260406000206000915090505481565b600660009054906101000a900473ffffffffffffffffffffffffffffffffffffffff1681565b606060006060600060016002546003600460009054906101000a900460ff16838054600181600116156101000203166002900480601f0160208091040260200160405190810160405280929190818152602001828054600181600116156101000203166002900480156103d35780601f106103a8576101008083540402835291602001916103d3565b820191906000526020600020905b8154815290600101906020018083116103b657829003601f168201915b50505050509350818054600181600116156101000203166002900480601f01602080910402602001604051908101604052809291908181526020018280546001816001161561010002031660029004801561046f5780601f106104445761010080835404028352916020019161046f565b820191906000526020600020905b81548152906001019060200180831161045257829003601f168201915b50505050509150935093509350935090919293565b60008054906101000a900473ffffffffffffffffffffffffffffffffffffffff1673ffffffffffffffffffffffffffffffffffffffff163373ffffffffffffffffffffffffffffffffffffffff16148061051d57506000600760003373ffffffffffffffffffffffffffffffffffffffff1673ffffffffffffffffffffffffffffffffffffffff16815260200190815260200160002054115b61052657600080fd5b60008060008054906101000a900473ffffffffffffffffffffffffffffffffffffffff1673ffffffffffffffffffffffffffffffffffffffff163373ffffffffffffffffffffffffffffffffffffffff1614156105aa5760008054906101000a900473ffffffffffffffffffffffffffffffffffffffff1691506005549050610675565b600660009054906101000a900473ffffffffffffffffffffffffffffffffffffffff1673ffffffffffffffffffffffffffffffffffffffff163373ffffffffffffffffffffffffffffffffffffffff16141561062e57600660009054906101000a900473ffffffffffffffffffffffffffffffffffffffff16915060009050610674565b339150600760003373ffffffffffffffffffffffffffffffffffffffff1673ffffffffffffffffffffffffffffffffffffffff1681526020019081526020016000205490505b5b6000600760003373ffffffffffffffffffffffffffffffffffffffff1673ffffffffffffffffffffffffffffffffffffffff168152602001908152602001600020819055508173ffffffffffffffffffffffffffffffffffffffff166108fc829081150290604051600060405180830381858888f19350505050158015610700573d6000803e3d6000fd5b506002600460006101000a81548160ff0219169083600281111561072057fe5b02179055505050565b60008060009054906101000a900473ffffffffffffffffffffffffffffffffffffffff1673ffffffffffffffffffffffffffffffffffffffff163373ffffffffffffffffffffffffffffffffffffffff16141561078557600080fd5b6001600281111561079257fe5b600460009054906101000a900460ff1660028111156107ad57fe5b146107b757600080fd5b600034116107c457600080fd5b600034600760003373ffffffffffffffffffffffffffffffffffffffff1673ffffffffffffffffffffffffffffffffffffffff16815260200190815260200160002054019050600554811161081857600080fd5b80600760003373ffffffffffffffffffffffffffffffffffffffff1673ffffffffffffffffffffffffffffffffffffffff168152602001908152602001600020819055508060058190555033600660006101000a81548173ffffffffffffffffffffffffffffffffffffffff021916908373ffffffffffffffffffffffffffffffffffffffff16021790555060019150509056fea26469706673582212204a325b5dff3549e7984e7a25c81c7d9f9998e21c2f07e109fb62e96e29ba143064736f6c63430007060033",
  "immutableReferences": {},
  "source": "// SPDX-License-Identifier: MIT\npragma solidity >=0.4.22 <0.9.0;\n\ncontract Tenderbox {\n    Tender[] public tenders; \n   \n    function createTender (\n        string memory _tenderproposal,\n        uint _startPrice,\n        string memory _description\n        ) public{\n        require(_startPrice > 0);\n        // set a new instance of a tender\n        Tender newTender = new Tender(msg.sender, _tenderproposal, _startPrice, _description);\n        // push the tender address to tendering sessions array\n        tenders.push(newTender);\n    }\n    \n    function returnAllTenders() public view returns(Tender[] memory){\n        return tenders;\n    }\n}\n\ncontract Tender {\n    \n        \n    address payable private owner; // Ideally the owner is usually the merchant \n    string tenderproposal;\n    uint startPrice;\n    string description;\n\n    enum State{Default, InSession, Finalized}\n    State public tenderingsessionState;\n\n    uint public highestPrice; // will change to a definite set price\n    address payable public highestBidder; // Bidders are ideally suppliers\n    mapping(address => uint) public bids;\n    \n    /** @dev constructor to create a tender\n      * @param _owner who call createTender() in a Tenderbox contract\n      * @param _tenderproposal is the definition of the tender\n      * @param _startPrice the start price of the tender's product\n      * @param _description the description of the tender\n      */\n      \n    constructor(\n        address payable _owner,\n        string memory _tenderproposal,\n        uint _startPrice,\n        string memory _description\n        \n        ) public {\n        // initialize tender\n        owner = _owner;\n        tenderproposal = _tenderproposal;\n        startPrice = _startPrice;\n        description = _description;\n        tenderingsessionState = State.InSession;\n    }\n    \n    modifier notOwner(){\n        require(msg.sender != owner);\n        _;\n    }\n    \n    /** @dev Function to place a bid\n      * @return true\n      */\n    \n    function placeBid() public payable notOwner returns(bool) {\n        require(tenderingsessionState == State.InSession);\n        require(msg.value > 0);\n        // update the current bid\n        uint currentBid = bids[msg.sender] + msg.value;\n        //uint currentBid = bids[msg.sender].add(msg.value);\n        require(currentBid > highestPrice);\n        // set the currentBid links with msg.sender\n        bids[msg.sender] = currentBid;\n        // update the highest price\n        highestPrice = currentBid;\n        highestBidder = msg.sender;\n        \n        return true;\n    }\n    \n    function finalizeTenderingSession() public{\n        //the owner and bidders can finalize the tendering session.\n        require(msg.sender == owner || bids[msg.sender] > 0);\n        \n        address payable recipient;\n        uint value;\n        \n        // owner can get highestPrice\n        if(msg.sender == owner){\n            recipient = owner;\n            value = highestPrice;\n        }\n        // highestBidder can get no money\n        else if (msg.sender == highestBidder){\n            recipient = highestBidder;\n            value = 0;\n        }\n        // Other bidders can get back the money \n        else {\n            recipient = msg.sender;\n            value = bids[msg.sender];\n        }\n        // initialize the value\n        bids[msg.sender] = 0;\n        recipient.transfer(value);\n        tenderingsessionState = State.Finalized;\n    }\n    \n    /** @dev Function to return the contents of the tendering session\n      * @return the tender proposal of the tender\n      * @return the start price of the tender\n      * @return the description of the tender\n      * @return the state of the tendering session \n      */    \n    \n    function returnContents() public view returns(        \n        string memory,\n        uint,\n        string memory,\n        State\n        ) {\n        return (\n            tenderproposal,\n            startPrice,\n            description,\n            tenderingsessionState\n        );\n    }\n    \n}",
  "sourcePath": "/home/celestinedefault/home/celestino/Tenderer/TenderboxMoonbeam/contracts/Tenderbox.sol",
  "compiler": {
    "name": "solc",
    "version": "0.7.6+commit.7338295f.Emscripten.clang"
  },
  "schemaVersion": "3.3.4",
  "updatedAt": "2021-05-29T20:39:11.266Z",
  "devdoc": {
    "kind": "dev",
    "methods": {
      "constructor": {
        "details": "constructor to create a tender",
        "params": {
          "_description": "the description of the tender",
          "_owner": "who call createTender() in a Tenderbox contract",
          "_startPrice": "the start price of the tender's product",
          "_tenderproposal": "is the definition of the tender"
        }
      },
      "placeBid()": {
        "details": "Function to place a bid",
        "returns": {
          "_0": "true"
        }
      },
      "returnContents()": {
        "details": "Function to return the contents of the tendering session",
        "returns": {
          "_0": "the tender proposal of the tender",
          "_1": "the start price of the tender",
          "_2": "the description of the tender",
          "_3": "the state of the tendering session "
        }
      }
    },
    "version": 1
  },
  "userdoc": {
    "kind": "user",
    "methods": {},
    "version": 1
  }
}